:020000022000DC
:1060000000FD0020611F0400891F04008B1F040095
:106010008D1F04008F1F0400911F0400000000006A
:10602000000000000000000000000000931F0400BA
:10603000951F040000000000971F0400991F040032
:106040009B1F04009B1F04009B1F04009B1F040058
:106050009B1F04009B1F0400919602009B1F0400DD
:106060009B1F04009B1F04009D4603009B1F040010
:106070009B1F04009B1F04009B1F04009B1F040028
:106080009B1F040049EC0300D1F202009B1F040097
:10609000ADEC03009B1F040029A202009B1F04001B
:1060A0009B1F04009B1F04009B1F04009B1F0400F8
:1060B0009B1F04009B1F0400000000000000000064
:1060C0009B1F04009B1F04009B1F04009B1F0400D8
:1060D0009B1F04009B1F04009B1F04000000000086
:1060E00000000000000000000000000000000000B0
:1060F00000000000000000000000000000000000A0
:10610000000000000000000000000000000000008F
:10611000000000000000000000000000000000007F
:10612000000000000000000000000000000000006F
:10613000000000000000000000000000000000005F
:10614000000000000000000000000000000000004F
:10615000000000000000000000000000000000003F
:10616000000000000000000000000000000000002F
:10617000000000000000000000000000000000001F
:10618000000000000000000000000000000000000F
:1061900000000000000000000000000000000000FF
:1061A00000000000000000000000000000000000EF
:1061B00000000000000000000000000000000000DF
:1061C00000000000000000000000000000000000CF
:1061D00000000000000000000000000000000000BF
:1061E00000000000000000000000000000000000AF
:1061F000000000000000000000000000000000009F
:1062000010B5054C237833B9044B13B10448AFF3F0
:1062100000800123237010BDD82E00200000000054
:10622000885C040008B5034B1BB103490348AFF376
:10623000008008BD00000000DC2E0020885C040007
:10624000154B002B08BF134B9D46A3F5803A002148
:106250008B460F461348144A121A1DF093FB0F4B3E
:10626000002B00D098470E4B002B00D09847002001
:10627000002104000D000D48002802D00C48AFF3A7
:1062800000801DF031FB2000290001F0F7F91DF01E
:1062900017FB00BF0000080000FD00200000000008
:1062A00000000000D82E0020AC56002000000000A6
:1062B0000000000041DF70470B7843B91D4B1B689D
:1062C00013F4804F03D01C4B1B68032B00DC70477A
:1062D00070B584B00C462F2118481DF02DFCD0B1AC
:1062E0002F2116481DF028FC411C154BD3F804350E
:1062F00062685588247B52691678CEB992F90D20D0
:106300000392029401950F4A0092FE2204200AF0A3
:1063100089F804B070BD5C2108481DF00DFC28B15F
:106320005C2106481DF008FC411CDEE70349DCE760
:106330000022E5E7302E00202C2E00207C3C0400BB
:1063400000100140AC3C040030B5C7B0A04B1B6846
:1063500013F4804F03D09F4B1B68032B32DC9C4B04
:106360001B6813F4804F03D09A4B1B68032B4BDC44
:10637000974B1B6813F4804F04D0964B1B68032B7C
:1063800000F39B80924B1B6813F4804F04D0914B19
:106390001B68032B00F3CF808D4B1B6813F4804FD9
:1063A00004D08C4B1B68032B00F30381884B1B68C4
:1063B00013F4804F04D0874B1B68032B00F320811C
:1063C00047B030BD2F2184481DF0B6FB78B12F2196
:1063D00081481DF0B1FB411C804BD3F80435804A45
:1063E000009240F20F2204200AF01CF8B7E75C216B
:1063F00079481DF0A1FB28B15C2177481DF09CFB7A
:10640000411CE9E77449E7E72F2173481DF094FB2D
:10641000B0B12F2170481DF08FFB411C6F4BD3F89A
:106420000435704A10885488D288039202940190EF
:106430006D4A009240F21122042009F0F3FF97E721
:106440005C2165481DF078FB28B15C2162481DF095
:1064500073FB411CE2E76049E0E7624A1A4492F8A4
:106460002C2062490C6810095900255C05A800F829
:10647000135002F00F020131A25C425401330F2B82
:10648000EBD900238DF834302F2153481DF054FBF5
:10649000A8B12F2150481DF04FFB411C4F4BD3F8A2
:1064A000043505AA0292524A0192524A009240F2E1
:1064B0001222042009F0B6FF64E70023DFE75C2125
:1064C00045481DF039FB28B15C2143481DF034FBE1
:1064D000411CE3E74049E1E7424A1A44127B434941
:1064E0000C6810095900255C05A800F8135002F04B
:1064F0000F020131A25C425401330F2BECD900236F
:106500008DF834302F2134481DF016FBA8B12F210F
:1065100031481DF011FB411C304BD3F8043505AA5E
:106520000292354A0192334A009240F2132204202B
:1065300009F078FF30E70023DFE75C2126481DF0F3
:10654000FBFA28B15C2124481DF0F6FA411CE3E770
:106550002149E1E7234A1A44127F24490C681009B3
:106560005900255C05A800F8135002F00F02013114
:10657000A25C425401330F2BECD900238DF8343048
:106580002F2115481DF0D8FAA8B12F2112481DF06F
:10659000D3FA411C114BD3F8043505AA0292174ACD
:1065A0000192144A00924FF40572042009F03AFF58
:1065B000FCE60023DFE75C2107481DF0BDFA28B1A7
:1065C0005C2105481DF0B8FA411CE3E70249E1E708
:1065D000302E00202C2E00207C3C040000100140B6
:1065E000603D04003C2F00207C3D0400342E002040
:1065F000C03D0400CC3D0400D43D0400E03D040057
:106600002F2110481DF098FA78B12F210D481DF068
:1066100093FA411C0C4BD3F804350C4A009240F21B
:106620001522042009F0FEFECAE65C2105481DF093
:1066300083FA28B15C2103481DF07EFA411CE9E78A
:106640000049E7E77C3C040000100140EC3D0400F9
:1066500003780E2B38D100B583B01C4B1B6813F4A4
:10666000804F03D01A4B1B68042B05DC194B1B7899
:1066700023B303B05DF804FB2F2117481DF05CFA2B
:1066800078B12F2114481DF057FA411C134BD3F851
:106690000435134A009240F25B12052009F0C2FE55
:1066A000E4E75C210C481DF047FA28B15C210A4858
:1066B0001DF042FA411CE9E70749E7E7FFF744FE0E
:1066C000044B01221A70D4E7704700BF302E00201F
:1066D0002C2E0020782F00207C3C0400001001406C
:1066E000F83C040010B584B003901E4B1B6813F4F3
:1066F000804F03D01C4B1B68042B11DCBDF80C3001
:10670000102B02D0784603F0CBFF184C3C2200211E
:1067100020461DF037F94FF48073E38004B010BDBC
:106720002F2113481DF008FA70B12F2110481DF0D9
:1067300003FA411C0F4BD3F804350F4A009288220C
:10674000052009F06FFED9E75C2109481DF0F4F936
:1067500028B15C2106481DF0EFF9411CEAE7044925
:10676000E8E700BF302E00202C2E00203C2F002018
:106770007C3C040000100140C43F040010B584B00C
:1067800003900C461B4B1B6813F4804F03D01A4B2D
:106790001B68042B0DDCBDF80C30102B02D07846A2
:1067A00003F07EFF3C22154920461DF0E0F804B0BE
:1067B00010BD2F2112481DF0BFF970B12F211048D4
:1067C0001DF0BAF9411C0F4BD3F804350E4A009264
:1067D0007F22052009F026FEDDE75C2108481DF038
:1067E000ABF928B15C2106481DF0A6F9411CEAE787
:1067F0000349E8E7302E00202C2E00203C2F0020FB
:106800007C3C040000100140E03F040010B584B05F
:1068100003900C46204B1B6813F4804F03D01F4B92
:106820001B68042B0CDCBDF80C30102B29D13C224A
:1068300021461B481DF08CF838BB002004B010BD69
:106840002F2118481DF078F970B12F2115481DF03F
:1068500073F9411C144BD3F80435144A0092712289
:10686000052009F0DFFDDEE75C210E481DF064F92C
:1068700028B15C210B481DF05FF9411CEAE709498A
:10688000E8E7784603F00CFFD1E73C2221460448B4
:106890001DF06DF8D1E700BF302E00202C2E002017
:1068A0003C2F00207C3C040000100140F83F040015
:1068B00000B583B0244B1B6813F4804F03D0234BE7
:1068C0001B68032B12DC224B4FF6FF725A809A8012
:1068D0001A8020480FF01CF950BB1F4A00211F48A6
:1068E00012F060FB50BB03B05DF804FB2F211C4885
:1068F0001DF022F978B12F2119481DF01DF9411C16
:10690000184BD3F80435184A009240F2B51204200F
:1069100009F088FDD7E75C2111481DF00DF928B179
:106920005C210F481DF008F9411CE9E70C49E7E735
:106930000B4A40F2BD111BF03FFBCEE7084A4FF473
:10694000DF711BF039FBCEE7302E00202C2E00200B
:10695000F42E00206D690200B9620200FC2E0020B6
:106960007C3C040000100140AC40040070B582B0D3
:1069700004460D461646194B1B6813F4804F03D08E
:10698000174B1B68032B06DC32462946204602F0D3
:10699000D7FB02B070BD2F2112481DF0CDF878B1A1
:1069A0002F2110481DF0C8F8411C0F4BD3F80435B7
:1069B0000E4A009240F21312042009F033FDE3E77F
:1069C0005C2108481DF0B8F828B15C2105481DF08D
:1069D000B3F8411CE9E70349E7E700BF302E002088
:1069E0002C2E00207C3C040000100140E03B040001
:1069F00000B583B01A4B1B6813F4804F03D0194BBA
:106A00001B68032B08DC0021174B1970122002F0C1
:106A1000A3FD03B05DF804FB2F2114481DF08CF892
:106A200088B12F2111481DF087F8411C104BD3F875
:106A30000435104A528801920F4A0092D82204204D
:106A400009F0F0FCDFE75C2108481DF075F828B17B
:106A50005C2106481DF070F8411CE7E70349E5E7B3
:106A6000302E00202C2E0020392F00207C3C0400EA
:106A7000001001403C2F0020F83B040000B583B01B
:106A8000194B1B6813F4804F03D0184B1B68032B62
:106A900008DC0021164B1970112002F05DFD03B0D7
:106AA0005DF804FB2F2113481DF046F870B12F212B
:106AB00010481DF041F8411C0F4BD3F804350F4A24
:106AC0000092E922042009F0ADFCE2E75C210948CC
:106AD0001DF032F828B15C2106481DF02DF8411C4C
:106AE000EAE70449E8E700BF302E00202C2E002002
:106AF000392F00207C3C040000100140143D0400AC
:106B000010B582B0044622491CF0FCFF10B92148A0
:106B100002B010BD204920461CF0F4FF08B91D4802
:106B2000F6E71E4920461CF0EDFF08B91C48EFE7C8
:106B30001C4B1B6813F4804F03D01B4B1B68002BAE
:106B400004DA784603F0ACFD0020E1E72F21174876
:106B50001CF0F2FF70B12F2114481CF0EDFF411C16
:106B6000134BD3F80435134A0092B222002009F0E7
:106B700059FCE6E75C210D481CF0DEFF28B15C21E2
:106B80000A481CF0D9FF411CEAE70849E8E700BFC2
:106B900008410400CC4004002441040040410400AA
:106BA000E8400400302E00202C2E00207C3C040005
:106BB000001001406041040000B583B0A64B1B7873
:106BC000002B40F01B81A54B5A881B889A423ED26D
:106BD000A34B1B6813F4804F03D0A24B1B68032BFD
:106BE00013DC9E4A908893680193002300931C3223
:106BF000022102F02BFB0121122002F0ADFC964B8A
:106C000001221A7003B05DF804FB2F2196481CF096
:106C100093FF78B12F2194481CF08EFF411C934BB9
:106C2000D3F80435924A009240F22512042009F06C
:106C3000F9FBD6E75C218C481CF07EFF28B15C2173
:106C400089481CF079FF411CE9E78749E7E7002BF9
:106C500038D1834B1B6813F4804F03D0814B1B68E2
:106C6000032B0DDC0323834A7C49C988022001F0F1
:106C700067FA01F0B9FA0121112002F06DFCBEE7BC
:106C80002F2179481CF058FF78B12F2176481CF04D
:106C900053FF411C754BD3F80435774A009240F2FC
:106CA0002F12042009F0BEFBDCE75C216E481CF0CB
:106CB00043FF28B15C216C481CF03EFF411CE9E712
:106CC0006949E7E71E2B6CD8654B1B6813F4804FAE
:106CD00003D0644B1B68032B1CDC604B9868FFF7E8
:106CE0000FFF664B18605E4B1B6813F4804F03D098
:106CF0005C4B1B68032B2FDC0123604A5749C98872
:106D0000022001F01DFA01F06FFA0121112002F0BA
:106D100023FC74E72F2154481CF00EFF78B12F217B
:106D200051481CF009FF411C504BD3F80435544A1C
:106D3000009240F23B12042009F074FBCDE75C2185
:106D400049481CF0F9FE28B15C2147481CF0F4FECC
:106D5000411CE9E74449E7E72F2143481CF0ECFEDA
:106D600090B12F2140481CF0E7FE411C3F4BD3F867
:106D70000435424A12680192424A009240F23F12A0
:106D8000042009F04FFBB7E75C2137481CF0D4FE24
:106D900028B15C2134481CF0CFFE411CE6E73249A3
:106DA000E4E72F4B1B6813F4804F3FF42BAF2D4BC0
:106DB0001B68032B7FF726AF2F212B481CF0BCFE4E
:106DC00078B12F2128481CF0B7FE411C274BD3F87F
:106DD00004352D4A00924FF4A472042009F022FBDE
:106DE00010E75C2120481CF0A7FE28B15C211E485A
:106DF0001CF0A2FE411CE9E71B49E7E7184B1B68A2
:106E000013F4804F3FF4FEAE164B1B68032B7FF745
:106E1000F9AE2F2114481CF08FFE78B12F211248B3
:106E20001CF08AFE411C114BD3F80435174A00921E
:106E30004FF4A872042009F0F5FAE3E65C210A4851
:106E40001CF07AFE28B15C2107481CF075FE411C3D
:106E5000E9E70549E7E700BF392F00203C2F002074
:106E6000302E00202C2E00207C3C0400001001401D
:106E7000983E0400FC2D0020CC3E0400802F002012
:106E8000FC3E04002C3F0400443F0400603F04002B
:106E900008B501F0EFF9024B18680CF0C0F808BD16
:106EA000D83B040010B582B004464A4B1B6813F46B
:106EB000804F03D0484B1B68032B04DC3CB3032CEE
:106EC00028D002B010BD2F2144481CF035FE88B1F7
:106ED0002F2142481CF030FE411C414BD3F80435B1
:106EE000621C01923F4A009240F28D12042009F088
:106EF00099FAE3E75C2139481CF01EFE28B15C21B9
:106F000036481CF019FE411CE7E73449E5E7FFF776
:106F100053FED6E72F4B1B6813F4804F03D02E4B44
:106F20001B68032B27DCFFF7B3FF00F0AFFB042245
:106F3000C8214FF4801002F02BFB264B1B6813F482
:106F4000804FBED0244B1B68032BBADD2F21234872
:106F50001CF0F2FD88B32F2120481CF0EDFD411CF0
:106F60001F4BD3F80435204A009240F2A1120420AE
:106F700009F058FAA5E72F2118481CF0DDFD78B17B
:106F80002F2116481CF0D8FD411C154BD3F80435B1
:106F9000164A009240F29B12042009F043FAC2E71D
:106FA0005C210E481CF0C8FD28B15C210B481CF088
:106FB000C3FD411CE9E70949E7E75C2107481CF0EC
:106FC000BBFD28B15C2105481CF0B6FD411CC7E79C
:106FD0000249C5E7302E00202C2E00207C3C040006
:106FE00000100140303E04005C3E0400443E0400BA
:106FF0003038042800D9704708B5FFF753FF08BDA3
:1070000000B583B00649074B18680BF0D7FF10B9DD
:1070100003B05DF804FB784603F042FBF8E700BFDD
:107020003C2F0020B83B040010B582B03E4B1B68DB
:1070300013F4804F03D03D4B1B68032B1DDC002154
:10704000122002F089FA3A4C638801336380FFF71B
:10705000D7FF63881E2B34D9334B1B6813F4804F42
:1070600003D0324B1B68032B3CDC0422C8214FF4B5
:10707000F01002F08DFA02B010BD2F212D481CF047
:107080005BFD88B12F212B481CF056FD411C2A4B7B
:10709000D3F80435264A52880192284A0092BD222C
:1070A000042009F0BFF9CAE75C2122481CF044FD26
:1070B00028B15C211F481CF03FFD411CE7E71D493A
:1070C000E5E7A068FFF71CFD1D4A10600123E18879
:1070D000022001F035F801F087F80121112002F0BB
:1070E0003BFAC8E72F2113481CF026FD70B12F2171
:1070F00010481CF021FD411C0F4BD3F80435114AF8
:107100000092D022042009F08DF9AEE75C210948F5
:107110001CF012FD28B15C2106481CF00DFD411C3D
:10712000EAE70449E8E700BF302E00202C2E0020BB
:107130003C2F00207C3C040000100140543C040023
:107140007C2F0020443F040000B583B01B4B1B681C
:1071500013F4804F03D01A4B1B68032B0CDC002167
:10716000112002F0F9F90121122002F0F5F9FFF7E0
:1071700047FF03B05DF804FB2F2112481CF0DCFC34
:1071800070B12F210F481CF0D7FC411C0E4BD3F8D7
:1071900004350E4A0092DF22042009F043F9DEE7AD
:1071A0005C2108481CF0C8FC28B15C2105481CF093
:1071B000C3FC411CEAE70349E8E700BF302E00208A
:1071C0002C2E00207C3C040000100140443D0400B3
:1071D00008B5FFF715FF08BD10B582B004461B4B7C
:1071E0001B6813F4804F03D0194B1B68032B04DC7E
:1071F00023781C2B25D002B010BD2F2115481CF080
:107200009BFC88B12F2113481CF096FC411C124BAB
:10721000D3F8043522780192104A009240F2071206
:10722000042009F0FFF8E3E75C210A481CF084FC25
:1072300028B15C2107481CF07FFC411CE7E70549A9
:10724000E5E7002006F0C6FED5E700BF302E00209F
:107250002C2E00207C3C040000100140383C04002F
:1072600010B582B01F49204B18680BF0B9FE0446D8
:10727000E8B91E4B1B6813F4804F21D01C4B1B68D0
:10728000032B1DDD2F211B481CF056FCE8B12F21DC
:1072900018481CF051FC411C174BD3F80435174A11
:1072A00000924FF4C372042009F0BCF808E00D4BC3
:1072B00000221A805A804FF48072DA80FFF7A0FE15
:1072C000B4FA84F0400902B010BD5C2109481CF0FA
:1072D00033FC28B15C2107481CF02EFC411CDBE785
:1072E0000449D9E73C2F0020D43B0400302E002075
:1072F0002C2E00207C3C040000100140E43C0400E3
:1073000000B583B06421224802F0C0F8214B1B680D
:1073100013F4804F03D0204B1B68032B10DC06F0C6
:107320008FFD78BB00214FF4F01002F026F9022205
:10733000C8214FF4F01002F02BF903B05DF804FB04
:107340002F2116481CF0F8FB78B12F2113481CF0B0
:10735000F3FB411C124BD3F80435124A009240F261
:107360001B22042009F05EF8D9E75C210B481CF0D1
:10737000E3FB28B15C2109481CF0DEFB411CE9E776
:107380000649E7E7054A40F221211AF015FEC9E750
:10739000F16F0200302E00202C2E00207C3C0400D7
:1073A000001001407C41040008B5124B99881889EF
:1073B00013F0C4FE58B90F4B9988188913F068FF71
:1073C00058B90C4B188811F01FFA60B908BD0A4A69
:1073D0004FF4B9711AF0F0FDEDE7074A40F273116E
:1073E0001AF0EAFDEDE7044A4FF4BB711AF0E4FD30
:1073F000ECE700BFF42E00207C3C040030B593B0D5
:10740000202200210DEB02001CF0BCFA01238DF8B4
:10741000203007238DF8233006238DF828305B4B6E
:107420000C935B4B10930DF1470108A800F03CF959
:1074300068B30B282AD1574B1B6813F4804F26D012
:10744000554B1B68032B22DD2F2154481CF074FB85
:1074500078B12F2151481CF06FFB411C504BD3F8E1
:107460000435504A00924FF4E872042008F0DAFF25
:107470000DE05C2149481CF05FFB28B15C214748C6
:107480001CF05AFB411CE9E74449E7E740BB46488A
:1074900006F03AFDFFF7E4FE02AC444D0FCD0FC4F9
:1074A00095E8030084E8030002A800F0A7FF9DF818
:1074B0004730002B3CD1374B1B6813F4804F03D06F
:1074C000354B1B68032B11DC00F0C0FFFFF76CFF8E
:1074D000FFF77EFE3649374801F0B2FF13B030BDEA
:1074E0002E4A40F2D5111AF067FDD0E72F212B4824
:1074F0001CF022FB78B12F2128481CF01DFB411CF9
:10750000274BD3F804352C4A00924FF4F67204202E
:1075100008F088FFD8E75C2120481CF00DFB28B15B
:107520005C211E481CF008FB411CE9E71B49E7E70A
:10753000184B1B6813F4804F03D0174B1B68032BA9
:1075400002DC00F0D3FEC5E72F2114481CF0F4FA4A
:1075500078B12F2111481CF0EFFA411C104BD3F8E1
:107560000435164A00924FF4FA72042008F05AFFCC
:10757000E7E75C2109481CF0DFFA28B15C210748E5
:107580001CF0DAFA411CE9E70449E7E7D971020087
:10759000B1680200302E00202C2E00207C3C04001C
:1075A0000010014010400400F02D0020BC3B0400FE
:1075B000F169020029700200604004009840040054
:1075C00000B583B0264A04214FF4C04008F00EFFF6
:1075D000244B1B6813F4804F03D0234B1B68032BF1
:1075E0000FDC17F067FB70BB02F006F81F4802F0D3
:1075F00023F870BB02F030F9FFF700FF03B05DF82D
:1076000004FB2F211A481CF097FA78B12F21184853
:107610001CF092FA411C174BD3F80435164A00921D
:107620004FF4FF72042008F0FDFEDAE75C211048F9
:107630001CF082FA28B15C210D481CF07DFA411C37
:10764000E9E70B49E7E70A4A4FF400711AF0B4FC86
:10765000CAE7074A4FF401711AF0AEFCCAE700BF4F
:10766000C1030300302E00202C2E0020A56E020046
:107670007C3C040000100140903F040008B5FFF777
:107680009FFFFFF73DFEFEF715FEFCE708B507F08C
:107690009DF813F086F915F0FDFD05F0F7FD08BD26
:1076A00008B517F00BF808BD70B582B0002837D0C8
:1076B00004460E4606F05EFB054610B1284602B0B1
:1076C00070BD15F03BFE13F075F9206911F066F8F6
:1076D00005460028F2D16369A269217F01910092D9
:1076E000592200210F4811F0C1FB05460028E5D1C1
:1076F000236A03B198470BF0F7FB15F0B5FD04467C
:1077000012F016FF0B2C07D00B2805D0FFF7C8FF8F
:10771000002ED3D03070D1E7FFF7B8FF0B25F5E787
:107720000E25CBE7842F00201D4B1B781BB11C4B73
:1077300001221A70704700B587B01A4A03AB07CA16
:1077400003C323F8022B120C1A70174B009303ABE0
:10775000164A1749174817F073FE88B916481AF0E9
:1077600035F990B914481AF067F90146114817F035
:107770008BFE78B90A4B01221A7007B05DF804FB42
:107780000E4A81211AF018FCE8E70C4A83211AF00E
:1077900013FCE7E7094A84211AF00EFCEAE700BF70
:1077A000A0310020884104007D780200E02F0020F5
:1077B000A43100205030002000300020E4440400B8
:1077C000B0B130B585B00546A1B10C4608461CF0F5
:1077D000ABF96A4681B2204607F088FE042269466A
:1077E00028461CF0B5F8B0FA80F0400905B030BD6D
:1077F000002070470020F9E710B58AB00446002346
:107800000393049305930693079308938DF824300C
:10781000144B1A89ADF81C20134A1288ADF82220A7
:10782000596810220C3103A81CF0A1F80F49104828
:1078300017F042FE58B90B4B9A7A0223009303AB20
:1078400021460C4817F03CFE30B90AB010BD0A4A78
:1078500073211AF0B1FBEEE7074A75211AF0ACFB71
:10786000F3E700BF88310020E6310020E02F002040
:10787000A431002050300020E444040070B5C8B0AA
:10788000044603780A2B10D8DFE813F00B00190424
:1078900036010F000F000F000F00DB030F0018036D
:1078A0005002874B1B78012B01D048B070BD854B2F
:1078B0001B6813F4804F03D0834B1B68032B47DCFA
:1078C000E3691B7843B97F4B1B6813F4804F03D0E7
:1078D0007D4B1B68032B4ADC637D002BE5D0794B85
:1078E0001B6813F4804F04D0774B1B68032B00F305
:1078F00090800025BEE0E218127974490D681009E5
:1079000059002E5C07A800F8136002F00F02013145
:10791000AA5C425401330F2BEDD900238DF83C3083
:107920002F216B481CF008F9A0B12F2168481CF0EA
:1079300003F9411C674BD3F8043507AA0292664A43
:107940000192664A00929822042008F06BFDB7E786
:107950000023E0E75C215E481CF0EEF828B15C21D2
:107960005B481CF0E9F8411CE4E75949E2E72F21A4
:1079700057481CF0E1F890B12F2155481CF0DCF875
:10798000411C544BD3F80435E26992F90D20019261
:10799000534A00929C22042008F044FD9CE75C219D
:1079A0004B481CF0C9F828B15C2149481CF0C4F8C8
:1079B000411CE6E74649E4E7E218927D43490D6839
:1079C000100959002E5C07A800F8136002F00F029E
:1079D0000131AA5C42540133032BEDD900238DF809
:1079E00024302F213A481CF0A7F8A0B12F213848A5
:1079F0001CF0A2F8411C374BD3F8043507AA0292B9
:107A0000384A0192354A0092A122042008F00AFD6A
:107A10006FE70023E0E75C212D481CF08DF828B1CA
:107A20005C212B481CF088F8411CE4E72849E2E778
:107A30002F2127481CF080F870B12F2124481CF01A
:107A40007BF8411C234BD3F80435274A0092A72228
:107A5000042008F0E7FC26E05C211D481CF06CF8CF
:107A600028B15C211A481CF067F8411CEAE7184964
:107A7000E8E701351D4B1B78AB427FF616AFAE0031
:107A80001B4B1B6853F8251004F11600FFF798FEF6
:107A90000028EED00B4B1B6813F4804F03D00A4B29
:107AA0001B68032BC4DC124B1B689A59114B1A60DC
:107AB000201DFFF7A1FE024B03221A70F5E600BF5E
:107AC00084310020302E00202C2E0020342E002067
:107AD000E444040000100140A8410400CC3D04002F
:107AE000B0410400BC410400C8410400EA31002058
:107AF000F0310020EC3100207E4B1B6813F4804FE6
:107B000003D07D4B1B68032B35DC7C4B1B78032B90
:107B100058D0022B7FF4C9AE794B5B68794A118843
:107B200099801A8801321A80DA88774800880244DE
:107B3000DA80B1F5807F00F0B080714CE36898473F
:107B4000236998476B4B1B6813F4804F04D06A4B32
:107B50001B68032B00F3A580694B5A6890889368D3
:107B600001930024009423461C32022101F06EFB95
:107B7000624B1C7099E62F2164481BF0DDFFA0B119
:107B80002F2162481BF0D8FF411C614BD3F804350C
:107B9000604A12780292594A127801925E4A009223
:107BA000B422042008F03EFCAFE75C2157481BF0EC
:107BB000C3FF28B15C2155481BF0BEFF411CE4E720
:107BC0005249E2E7534B1B78002B31D0494B1B68DD
:107BD00013F4804F03D0484B1B68032B07DC474B43
:107BE00001221A704B4A1378013B13705DE62F2176
:107BF00046481BF0A1FF70B12F2144481BF09CFFA9
:107C0000411C434BD3F80435444A0092B922042066
:107C100008F008FCE3E75C213C481BF08DFF28B12D
:107C20005C213A481BF088FF411CEAE73749E8E746
:107C3000304B1B6813F4804F1BD02F4B1B68002B5D
:107C400017DD2F2131481BF077FFC8B12F212F48B6
:107C50001BF072FF411C2E4BD3F80435227A2948C1
:107C60000088029001922E4A0092C022012008F062
:107C7000D9FB224B00221A70214B5B69984714E60E
:107C80005C2122481BF058FF28B15C211F481BF0E3
:107C900053FF411CDFE71D49DDE7224A12689A6065
:107CA0004BE72F2119481BF047FFA8B12F21174898
:107CB0001BF042FF411C164BD3F80435104A5268A2
:107CC0009288114C248802940192174A0092D22281
:107CD000042008F0A7FB3FE75C210C481BF02CFFB9
:107CE00028B15C2109481BF027FF411CE3E7074945
:107CF000E1E700BF302E00202C2E00208431002030
:107D000088310020E6310020E8310020E4440400FE
:107D100000100140E4310020EC4104003442040032
:107D200058420400EC3100209C420400A34B1B6825
:107D300013F4804F03D0A24B1B68032B5BDCA14BD9
:107D400002221A709D4B1B6813F4804F03D09C4B8A
:107D50001B68032B70DCE3689B49D88A15F050FB45
:107D6000002840F08A80E068984B1968984BA26818
:107D70004988C08A16F070F8002840F08380944B40
:107D800018880DF03DFF002840F081808E4B198847
:107D90008F4B18880DF0EAFE00287DD1874B1B68B9
:107DA00013F4804F3FF481AD854B1B68032B7FF7A5
:107DB0007CAD2F2187481BF0BFFE002871D02F21FA
:107DC00084481BF0B9FE411C834BD3F80435E268AC
:107DD000D28A7E4C246864887D4D2D880495039456
:107DE000794C2488029401927C4A0092F322042068
:107DF00008F018FB59E52F2176481BF09DFE70B165
:107E00002F2174481BF098FE411C734BD3F80435A6
:107E1000734A0092DD22042008F004FB8FE75C2106
:107E20006C481BF089FE28B15C216A481BF084FE77
:107E3000411CEAE76749E8E72F2166481BF07CFE12
:107E400070B12F2163481BF077FE411C624BD3F8C1
:107E50000435644A0092E222042008F0E3FA7AE74B
:107E60005C215C481BF068FE28B15C2159481BF07E
:107E700063FE411CEAE75749E8E7564AE4211AF055
:107E80009BF870E7534AE8211AF096F877E7514AD1
:107E9000EB211AF091F879E74E4AED211AF08CF8AF
:107EA0007CE75C214B481BF047FE28B15C21494828
:107EB0001BF042FE411C87E7464985E7027A4A4BA0
:107EC0001A80102300220121406817F028FB044685
:107ED00000283FF4EAAC394B1B6813F4804F03D001
:107EE000374B1B68002B14DC404B1B78002B55D004
:107EF000324B1B6813F4804F03D0314B1B68032BAC
:107F00002ADC304B01221A70384A1378013B137077
:107F1000CBE42F212F481BF00FFE80B12F212D48DD
:107F20001BF00AFE411C2C4BD3F804350194304A57
:107F3000009240F20312012008F074FAD4E75C21A9
:107F400024481BF0F9FD28B15C2122481BF0F4FD08
:107F5000411CE8E71F49E6E72F211E481BF0ECFD16
:107F600078B12F211B481BF0E7FD411C1A4BD3F8B9
:107F70000435204A00924FF48372042008F052FA2C
:107F8000BFE75C2113481BF0D7FD28B15C211148E5
:107F90001BF0D2FD411CE9E70E49E7E7074B1B68E0
:107FA00013F4804F03D0064B1B68032B24DC054BD6
:107FB00000221A70054B5B69984776E4302E00204A
:107FC0002C2E002084310020DC2F0020883100205E
:107FD000DE2F0020E4440400001001402043040090
:107FE000D4420400F8420400E8310020E4310020CB
:107FF00064430400944304002F2148481BF09CFD77
:1080000090B12F2145481BF097FD411C444BD3F8FC
:108010000435444A12880192434A009240F20D12FC
:10802000042008F0FFF9C2E75C213C481BF084FD06
:1080300028B15C2139481BF07FFD411CE6E7374938
:10804000E4E707AD394B0FCB85E80F001022294636
:10805000606817F06DFAF8B9354B1B6813F4804F60
:108060003FF423AC334B1B68032B7FF71EAC2F214F
:108070002A481BF061FDA8B12F2128481BF05CFDA8
:10808000411C274BD3F804352B4A009240F21B12B7
:10809000042008F0C7F908E4204A4FF48D7119F064
:1080A0008BFFD9E75C211D481BF046FD28B15C2100
:1080B0001A481BF041FD411CE3E71849E1E71C4B5E
:1080C0001B6813F4804F3FF4F0AB1A4B1B68032B73
:1080D0007FF7EBAB2F2111481BF02EFD80B12F2134
:1080E0000E481BF029FD411C0D4BD3F80435134AF3
:1080F00000924FF49072042008F094F9FFF7D5BB7A
:108100005C2106481BF018FD28B15C2103481BF0D8
:1081100013FD411CE8E70149E6E700BFE444040021
:1081200000100140E6310020A44304009441040003
:10813000302E00202C2E00200C4404003444040077
:1081400010B582B00AB1144653BB1D4B1B6813F423
:10815000804F32D01B4B1B68002B2EDD2F211A487D
:108160001BF0EAFC78B12F2117481BF0E5FC411CFD
:10817000164BD3F80435164A00924FF4977201203B
:1081800008F050F919E05C210F481BF0D5FC28B12C
:108190005C210D481BF0D0FC411CE9E70A49E7E7E8
:1081A0000C4A10700C4A11800C4A012111700C4AC3
:1081B00014600C4A1370FFF7B7FA02B010BD00BF8D
:1081C000302E00202C2E0020E4440400001001403A
:1081D00094440400E4310020E63100208431002082
:1081E000F0310020EA31002000B583B01B4B1B6842
:1081F00013F4804F03D01A4B1B68032B06DC19487D
:1082000017F013FA20BB03B05DF804FB2F211648CA
:108210001BF092FC78B12F2113481BF08DFC411C00
:10822000124BD3F80435124A009240F23D1204205A
:1082300008F0F8F8E3E75C210B481BF07DFC28B15F
:108240005C2109481BF078FC411CE9E70649E7E797
:10825000054A4FF49F7119F0AFFED4E7302E00208D
:108260002C2E00207D780200E44404000010014020
:108270002445040000B583B0174B1B6813F4804FEE
:1082800003D0164B1B68032B04DC17F0D6F903B0A0
:108290005DF804FB2F2112481BF04EFC78B12F2112
:1082A0000F481BF049FC411C0E4BD3F804350E4A15
:1082B000009240F24312042008F0B4F8E5E75C2194
:1082C00007481BF039FC28B15C2105481BF034FC41
:1082D000411CE9E70249E7E7302E00202C2E002060
:1082E000E4440400001001404845040030B589B062
:1082F00008A9012341F8083D0DF1160015F09EFD77
:1083000060BB069B012B2FD1364C2568BDF81600AB
:1083100015F03AFA688023685A884FF6FF739A423C
:1083200026D0304B1B6806AA191D588816F008F88D
:1083300010BB07A815F054F82A4B1968BDF81C00AB
:1083400015F02EFEF0B9284B1B6813F4804F03D0B4
:10835000264B1B68032B1BDC09B030BD244A40F2BE
:108360004F1119F029FECCE7784602F099F9CBE7D6
:10837000784602F095F9D4E71D4A40F2531119F0FE
:108380001BFED6E71A4A40F2571119F015FEDAE73C
:108390002F2117481BF0D0FBB8B12F2114481BF038
:1083A000CBFB411C134BD3F804350E4A126854889A
:1083B000958812880392029501940F4A00924FF417
:1083C000AD72042008F02EF8C6E75C2108481BF0C7
:1083D000B3FB28B15C2106481BF0AEFB411CE1E772
:1083E0000349DFE788310020302E00202C2E0020AA
:1083F000E4440400001001405444040038B504462D
:10840000C36883B1636993B12369A3B10C4D0FCCE9
:108410000FC594E8030085E803000023094A1370A0
:10842000094A137038BD784602F03AF9EAE778460F
:1084300002F036F9E8E7784602F032F9E6E700BFE5
:1084400088310020A03100208431002010B584B094
:108450003F4BDB6904A840F8043D14F083FF00287B
:1084600038D13C4C606810210C3006F06BF9606824
:1084700010211C3006F066F9606810212C3006F0DF
:1084800061F96168226802320C31002015F070FA3F
:1084900030BB314B1B6813F4804F03D02F4B1B684C
:1084A000032B23DC2B4B19685A680B1D1C3249889F
:1084B000002015F091FD00283ED1264B19685A681E
:1084C0000B462C324988012015F0C6FC002839D112
:1084D00004B010BD224A40F26D1119F06DFDC0E7E5
:1084E0001F4A40F2751119F067FDD2E72F211C4891
:1084F0001BF022FB98B12F2119481BF01DFB411CDA
:10850000184BD3F80435134A126852880192164A60
:1085100000924FF4BB72042007F084FFC2E75C2195
:108520000F481BF009FB28B15C210D481BF004FB30
:10853000411CE5E70A49E3E7094A40F2771119F0DF
:108540003BFDBAE7064A4FF4BD7119F035FDBFE7B0
:108550008841040088310020302E00202C2E00207D
:10856000E444040000100140D0440400B0F5807FD2
:1085700003D0044B044A1A607047024B034A1A6046
:10858000704700BF082E00209C48040014460400D9
:1085900070B5064614460D4601B122B1044B5E800B
:1085A0001D705C6070BD784602F07AF8F6E700BF97
:1085B0000032002010B584B00446674B5B888342CC
:1085C00032D0664B1B6813F4804F00F0BE80644BC2
:1085D0001B68002B02DC022004B010BD2F21614873
:1085E0001BF0AAFA98B12F215E481BF0A5FA411C96
:1085F0005D4BD3F80435584A5288029401925B4A85
:108600000092E522012007F00DFF0220E4E75C2143
:1086100054481BF091FA28B15C2152481BF08CFAA7
:10862000411CE5E74F49E3E748F2190398423FD080
:108630001CD948F22503984260D048F23E03984284
:108640001CD048F21F03984234D0444B1B6813F4EB
:10865000804F03D0424B1B68002B2DDC414A40F277
:108660000311052019F0A8FCFF2408E0022845D0DA
:1086700048F203039842E8D10C7800E00C78364BBE
:108680001B78002B63D0354B1B6813F4804F03D04D
:10869000334B1B68032B33DC00232F4A12789A429A
:1086A00051D92D4A5268D25CA24252D00133F4E72C
:1086B0000C78E4E70C78E2E72F212A481BF03CFA1B
:1086C00078B12F2127481BF037FA411C264BD3F8ED
:1086D0000435274A00924FF48172012007F0A2FE70
:1086E000BCE75C211F481BF027FA28B15C211D481C
:1086F0001BF022FA411CE9E71A49E7E7FF24BEE72D
:108700002F2118481BF018FA80B12F2115481BF0B3
:1087100013FA411C144BD3F804350194154A009206
:1087200040F20B12042007F07DFEB5E75C210D48F6
:108730001BF002FA28B15C210A481BF0FDF9411C2C
:10874000E8E70849E6E7012046E7022044E7002081
:1087500042E7002040E700BF00320020302E00201A
:108760002C2E00207445040000100140AC4504008C
:10877000D8450400F845040030B585B004461546D8
:108780000180104605F064FA2071E580234B1B88B8
:10879000A3810022A2731E23E373237C03F003034F
:1087A00062F30103237401236374A2741C4B1A88BF
:1087B000A4F813205B88A4F815301A4B1B6813F437
:1087C000804F03D0184B1B68032B01DC05B030BD74
:1087D0002F2116481BF0B0F998B12F2113481BF038
:1087E000ABF9411C124BD3F804352288E48802947B
:1087F0000192104A00924FF49472042007F012FE86
:10880000E4E75C2109481BF097F928B15C2107488F
:108810001BF092F9411CE5E70449E3E7F43100203D
:10882000F8310020302E00202C2E0020744504004A
:10883000001001402046040010B50A4B1B7863B1BC
:10884000084C2378013B04F8043B05F035FE06494B
:108850000144204605F006FE10BD784601F020FFD9
:10886000EEE700BF18320020404B4C0008B503482B
:1088700005F0E0FD024B034A1A6008BD1C320020DF
:10888000082E0020F147040008B5FFF7EFFF024B68
:108890001B68984708BD00BF0C32002010B58CB093
:1088A000A74B1B681B78013B0A2B00F24683DFE8CD
:1088B00013F00B004B008600C10002016D01C301E3
:1088C0002E020E0329039B029E4B1B6813F4804F5C
:1088D00003D09D4B1B68032B14DC00200DF0A6F980
:1088E0000446002211460220FFF752FE44B10DF06B
:1088F00081FA964B1B78002B40F02683FFF7C4FFCC
:108900000CB010BD2F2192481BF016F978B12F2121
:108910008F481BF011F9411C8E4BD3F804358E4A59
:1089200000924FF4B072042007F07CFDD5E75C2183
:1089300087481BF001F928B15C2185481BF0FCF841
:10894000411CE9E78249E7E77E4B1B6813F4804F3F
:1089500003D07D4B1B68032B0BDC012102200DF0A3
:108960000BFA04460022114648F22500FFF710FEDC
:10897000BCE72F2176481BF0DFF898B12F2174480F
:108980001BF0DAF8411C734BD3F804350122029234
:1089900002220192714A00924FF4B572042007F04E
:1089A00041FDDAE75C216A481BF0C6F828B15C217A
:1089B00067481BF0C1F8411CE5E76549E3E7614BF7
:1089C0001B6813F4804F03D05F4B1B68032B0FDC35
:1089D000634B1A68634B1988634B18880DF04CF988
:1089E0000446624A022148F20300FFF7D1FD7DE709
:1089F0002F2157481BF0A0F878B12F2154481BF0C5
:108A00009BF8411C534BD3F80435594A00924FF45C
:108A1000BA72042007F006FDDAE75C214C481BF02F
:108A20008BF828B15C214A481BF086F8411CE9E725
:108A30004749E7E7434B1B6813F4804F03D0424B91
:108A40001B68032B15DC4FF6FF73ADF818300223BB
:108A5000ADF81A30069A434B1988464B18880DF02A
:108A6000BFF90446444A012148F23E00FFF790FD59
:108A70003CE72F2136481BF05FF878B12F213448AE
:108A80001BF05AF8411C334BD3F804353B4A009293
:108A900040F27F12042007F0C5FCD4E75C212C488B
:108AA0001BF04AF828B15C2129481BF045F8411C0D
:108AB000E9E72749E7E7234B1B6813F4804F03D00E
:108AC000214B1B68032B15DC2D4B1A88ADF81820A1
:108AD0005B88ADF81A30069A224B1988254B188806
:108AE0000DF07EF90446274A012148F23E00FFF7C7
:108AF0004FFDFBE62F2116481BF01EF890B12F21E9
:108B000013481BF019F8411C124BD3F804351C4ACA
:108B1000528801921C4A00924FF4C772042007F059
:108B200081FCD1E75C210A481BF006F828B15C21E2
:108B300007481BF001F8411CE6E70549E4E700BFE0
:108B4000082E0020302E00202C2E0020183200206D
:108B5000744504000010014084460400A04604004F
:108B60003C320020F431002008320020D0470400BD
:108B7000D0460400FC310020D4470400E046040045
:108B800034320020D847040000470400AC4B1B8857
:108B900023B9AC4B1B880133A94A1380AA4B1B682D
:108BA00013F4804F03D0A94B1B68032B1CDCA84B8C
:108BB0001A88ADF818205B88ADF81A30069AA54BD4
:108BC00019889F4B18880DF00BF90446A24A012121
:108BD00048F23E00FFF7DCFC002C7FF487AE984A99
:108BE00013880133138081E62F219C481AF0A4FFDB
:108BF000A8B12F2199481AF09FFF411C984BD3F838
:108C00000435934A52888E4C248802940192954AE6
:108C1000009240F2A112042007F004FCC7E75C2197
:108C20008E481AF089FF28B15C218C481AF084FF25
:108C3000411CE3E78949E1E70023CDF81A30CDF87C
:108C40001E30CDF82230CDF82630CDF82A30ADF8E0
:108C50002E307C4A1288ADF8182001218DF81C10A6
:108C6000ADF81E107B4A1288ADF824201E228DF824
:108C700027209DF8282061F38702022060F301027B
:108C80008DF828208DF829104FF0FF328DF82B2019
:108C90008DF82C208DF82D008DF82E306A4B1B6836
:108CA00013F4804F03D0694B1B68032B0ADC06A822
:108CB0000DF01EF804466C4A012148F21900FFF736
:108CC00067FC13E62F2165481AF036FF90B12F217B
:108CD00062481AF031FF411C614BD3F80435BDF8EE
:108CE0001E200192614A00924FF4E172042007F0C5
:108CF00099FBDCE75C2159481AF01EFF28B15C2182
:108D000056481AF019FF411CE6E75449E4E70023EE
:108D1000CDF81A30CDF81E30CDF82230CDF82630FF
:108D2000CDF82A30ADF82E30464B1B88ADF8183000
:108D300001228DF81C2013F0010F28D14FF481730C
:108D4000ADF81E30434B1B88ADF824301E238DF840
:108D5000273001238DF82930454B1A88ADF82B2098
:108D60005B88ADF82D30384B1B6813F4804F03D06F
:108D7000364B1B68032B0FDC06A80CF0B9FF04462A
:108D80003C4A012148F21900FFF702FCAEE540F22F
:108D90000113ADF81E30D5E72F2130481AF0CCFE74
:108DA000A8B12F212D481AF0C7FE411C2C4BD3F837
:108DB00004352F4A5288BDF81E40029401922E4A73
:108DC00000924FF4F272042007F02CFBD4E75C21F0
:108DD00022481AF0B1FE28B15C2120481AF0ACFEFE
:108DE000411CE3E71D49E1E7174B1B6813F4804F73
:108DF00003D0164B1B68032B42DC124B1888002350
:108E0000079303238DF8183010F0010F5AD04CF25D
:108E10000303ADF81A30164B1A88ADF814205B889E
:108E2000ADF81630059B06AA06CA0CF07CFF044676
:108E3000124A012148F21F00FFF7AAFB56E500BFC6
:108E400038320020FC310020302E00202C2E002053
:108E5000F8310020F4310020DC47040074450400A0
:108E60000010014020470400E04704005047040080
:108E700034320020E447040090470400E84704002F
:108E80002F2133481AF058FE78B12F2130481AF0BC
:108E900053FE411C2F4BD3F804352F4A009240F269
:108EA000EF12042007F0BEFAA7E75C2128481AF069
:108EB00043FE28B15C2126481AF03EFE411CE9E73A
:108EC0002349E7E74CF20203ADF81A30A3E7002389
:108ED00006930793089309930A930B931F4B1988E2
:108EE00001314CF2030289B206A8FFF745FC06A83F
:108EF0000CF0FEFE04461A4A012148F21900FFF761
:108F000047FBF3E4002306930793089309930A931E
:108F10000B93124B198802314CF2020289B206A857
:108F2000FFF72AFC06A80CF0E3FE04460D4A0121D7
:108F300048F21900FFF72CFBD8E4054A4FF40871FA
:108F4000052019F039F8D2E4FFF776FCD8E400BF29
:108F50007445040000100140B8470400FC310020B3
:108F6000EC470400F047040008B5FFF797FC08BD84
:108F700008B5FFF77BFC024B1B68984708BD00BF94
:108F80001032002000B583B0284B1B681B780BB152
:108F90000C2B30D1264B1B6813F4804F1BD0254B74
:108FA0001B68012B17DD2F2123481AF0C5FDA8B13E
:108FB0002F2121481AF0C0FD411C204BD3F8043565
:108FC0001A4A1268127801921D4A009240F24E220B
:108FD000022007F027FA03B05DF804FB5C21164875
:108FE0001AF0AAFD28B15C2113481AF0A5FD411C16
:108FF000E3E71149E1E741680088FFF7DBFA78B958
:109000000A4A1368591C11600E4A032111705B78DB
:109010000C2B02D0FFF742FCDDE7FFF7A9FFDAE7F0
:109020000128D8D1FFF730FCD5E700BF082E00207B
:10903000302E00202C2E002074450400001001402A
:10904000504604001832002000B589B04FF6FF7377
:10905000ADF81E30ADF81C3001238DF81430ADF89A
:1090600016000DF11E0105A814F05AFBE8B907A976
:10907000BDF8160014F094FFE8B9BDF81C000CF020
:10908000BFFDF0B9BDF81E10BDF81C000CF06EFD60
:10909000E8B9264B1B6813F4804F03D0244B1B68A0
:1090A000032B1ADC09B05DF804FB224A4FF410715F
:1090B00018F082FFDBE71F4A40F2412118F07CFFE5
:1090C000DBE71C4A4FF4117118F076FFDAE7194A12
:1090D00040F2452118F070FFDBE72F2115481AF008
:1090E0002BFDA8B12F2113481AF026FD411C124B6D
:1090F000D3F80435BDF81E200292BDF81C20019261
:109100000E4A009240F24622042007F08BF9C9E78C
:109110005C2108481AF010FD28B15C2105481AF0BE
:109120000BFD411CE3E70349E1E700BF302E0020BF
:109130002C2E00207445040000100140A8480400B3
:1091400030B583B0002864D1394B1B6813F4804FCD
:1091500003D0384B1B68032B14DC374B1B88002BC8
:1091600054D0334B1B6813F4804F03D0314B1B6832
:10917000032B29DC304A1388013B1380FFF78EFB59
:1091800003B030BD2F212D481AF0D6FC78B12F2125
:109190002A481AF0D1FC411C294BD3F80435294A3E
:1091A000009240F27622042007F03CF9D5E75C21DA
:1091B00022481AF0C1FC28B15C2120481AF0BCFCFE
:1091C000411CE9E71D49E7E72F211C481AF0B4FCD0
:1091D00078B12F2119481AF0AFFC411C184BD3F875
:1091E0000435194A009240F27A22042007F01AF955
:1091F000C0E75C2111481AF09FFC28B15C210F48A0
:109200001AF09AFC411CE9E70C49E7E7FFF73CFB41
:10921000B6E70C4615460228B2D121B129462046B0
:10922000FFF7B0FEACE7784601F03AFAF6E700BF88
:10923000302E00202C2E0020143200207445040013
:1092400000100140F44704002048040010B582B02B
:10925000674C2468247854B3664B1B6813F4804F22
:109260005BD0654B1B68002B57DD2F2163481AF03C
:1092700063FC78B12F2161481AF05EFC411C604B01
:10928000D3F804355F4A009240F29222012007F0A1
:10929000C9F842E05C2159481AF04EFC28B15C2123
:1092A00056481AF049FC411CE9E75449E7E7564C97
:1092B00020805648018056495648C86003200870EF
:1092C00055490A60554A1380BDF81020544B1A8046
:1092D000544905981AF016FC08BB534B41F20102A1
:1092E0005A80524B4FF480525A804FF6FF734E4AC9
:1092F00013804E4A13803F4B1B6813F4804F03D0FA
:109300003D4B1B68032B4DDC3F4C2088FFF79CFE38
:109310002088FFF72BF9FFF7C1FA02B010BD4449CE
:1093200005981AF0EFFB0028D7D0424905981AF0AB
:10933000E9FB40B93C4B41F203025A803B4B41F2FE
:1093400002025A80D1E72B4B1B6813F4804F03D0E5
:10935000294B1B68002B03DC784601F0A1F9C4E718
:109360002F2126481AF0E8FB78B12F2123481AF064
:10937000E3FB411C224BD3F804352F4A009240F204
:10938000AA22012007F04EF8E6E75C211B481AF0FC
:10939000D3FB28B15C2119481AF0CEFB411CE9E748
:1093A0001649E7E72F2115481AF0C6FB90B12F2187
:1093B00012481AF0C1FB411C114BD3F80435124A74
:1093C000128801921D4A009240F2B122042007F057
:1093D00029F899E75C2109481AF0AEFB28B15C2115
:1093E00006481AF0A9FB411CE6E70449E4E700BF80
:1093F000082E0020302E00202C2E00207445040062
:10940000001001402C480400FC31002014320020E0
:1094100018320020698F02003C320020F431002015
:109420000832002008410400F831002034320020C6
:1094300024410400404104006048040080480400C6
:1094400038B50C46054628B144B1064B1D60064BA5
:109450001C6038BD784601F023F9F5E7784601F045
:109460001FF9F2E7103200200C32002008B5064B3D
:109470001B683BB118F0E6FE002803DB024B1B68BB
:109480009847F7E708BD00BF4032002010B50C46F2
:10949000144B1860144A0121144815F043FCA0B97C
:1094A000610CE00341F26F7200238B4208BF8242DD
:1094B00010D24FF47A7200231AF082F8014600228B
:1094C0000B4815F045FC38B910BD0A4A4A2118F07E
:1094D00073FDE5E70521F2E7064A4B2118F06CFD24
:1094E000F2E700BF403200206D940200E048040023
:1094F00044320020E448040008B5134B1B6873B1E4
:109500004FF0A042D2F80435104909684B40C2F828
:1095100004350D4A1368013B136023B108BD0020D8
:1095200018F03CFDECE70A4815F034FC4FF0A0427F
:10953000D2F804350549096823EA01030549096899
:109540000B43C2F80435E9E764320020683200209A
:109550006C3200209432002039B9012303FA00F064
:109560004FF0A043C3F808057047012303FA00F049
:109570004FF0A043C3F80C05704721B94FF0A0434A
:10958000C3F8080570474FF0A043C3F80C057047B7
:1095900012B11346132900D8704770B5124A1060F3
:1095A0005B00013B114A13604FF0A043D3F8043530
:1095B00018400F4B186000264D0CCC034FF47A7204
:1095C000002314F5FA7045F1000119F0F9FF324655
:1095D0000146084815F0BCFB28B9034B1A684FF048
:1095E000A043C3F80C2570BD68320020643200200F
:1095F000943200206C32002008B511230BE04FF0AC
:10960000A04103F5E072032041F8220001229A40B4
:10961000C1F808250133142BF1D9054A0121054869
:1096200015F080FB00B908BD18F0B8FCFBE700BFDF
:10963000F994020008490400F0B1104A10600023B8
:1096400009E00F4AD25C02F5E0724FF0A0410D48EC
:1096500041F822000133032BF3D90B4B4FF00042AA
:10966000C3F804230020C3F87C01084BC02283F810
:10967000062340221A6070470E2070478C3200206B
:109680000C4904000C0003000060004000E100E011
:1096900010B50024144BC3F87C410EE043F2333381
:1096A000994208D9114BD3F80425114B1A60114B7C
:1096B0001B68204698470134E4B2032C12D84FF0BF
:1096C000A043D3F810250C4B195D01238B40934325
:1096D000F1D0074B1B68054AD2F80425991ADDD54D
:1096E000D11ADBE710BD00BF006000400010014050
:1096F000903200208C3200200C49040072DF704749
:1097000073DF704774DF7047F0B5A3B005460E46AF
:109710001746304C1022002120461AF033F92E480B
:109720000378C3EB431C2D49614421602C4A6244F9
:10973000A2601F22A280A281013303F00103037003
:109740003C22002113A81AF01DF906238DF84F3092
:10975000ADF8485001238DF84A30ADF85C3012AABC
:109760001892ADF83C50ADF8407011960FAA1D92BA
:109770008DF878303C22002168461AF003F9022364
:109780008DF80030224652F8041B13A800F020FB8D
:1097900088B9104B03F10C029968684600F018FB79
:1097A00060B9104A0B491048FFF7A8FF082808D0F5
:1097B00068B923B0F0BD18F0F1FBEAE718F0EEFB52
:1097C000EFE7002203490848FFF798FFF0E718F099
:1097D000E5FBEEE7DC320020983200209C320020CE
:1097E000EC320020102E00200C2E0020B0F5202F8F
:1097F0000AD2074BA3FB0023DB0808B103B90123FE
:10980000044A9381916070474FF6FF73F5E700BFFC
:10981000CDCCCCCC102E002008B50121054B1878FA
:10982000FFF76EFF18B9002005F062FA08BD18F0C6
:10983000B5FBF8E70C2E002008B5044B1878FFF7AD
:1098400061FF00B908BD18F0A9FBFBE70C2E002052
:1098500008B504F05DFB08BD00B583B000F08AFCDC
:1098600070B902A9002341F8043D012000F0BAFBC1
:1098700048B901A800F01EFC40B903B05DF804FB34
:1098800018F08CFBEDE718F089FBF2E718F086FB87
:10989000F3E70000EFF3108272B6114B9B68C3B977
:1098A00030B40F4901238B600E4BD3F880400E4D2E
:1098B0002C400C60C3F88050D3F884404C604FF0CB
:1098C000FF31C3F884100023037002B962B630BCC4
:1098D0007047012303700AB962B67047704700BF32
:1098E0000056002000E100E0FC06FFBD084B9B682D
:1098F0006BB160B9EFF3108172B6054B1868054A79
:1099000010605868506000229A6001B962B67047D2
:109910000056002000E100E06DDF704779DF7047FE
:109920007DDF704764DF7047F0B583B00488012C99
:109930004BD01488A51C9D4249D80578012D04D12F
:10994000457825440235AB4245D315460E460746B9
:109950001C1BA4B2023CA4B202A921F8024D10883B
:1099600002303044FFF7DCFF034688BB3B78022B14
:1099700004D07978BDF80620914203D3BDF80620C3
:10998000A24220D9012B17D0ADF806400822BDF81D
:109990000630FE2B21D82988013373542B880133DC
:1099A0009BB22B80F2542B880133BDF8062012FAAB
:1099B00083F32B8000230BE07B78A342E4D8ADF83F
:1099C00006300822E3E70922E1E7072300E00C2341
:1099D000184603B0F0BD0C23FAE70C23F8E70B8818
:1099E0000433934223D830B583B00C4605460DF1BD
:1099F0000600FFF793FF0346B0B923880322EA5419
:109A0000238801339BB223801922EA54238801332F
:109A10009BB22380BDF80620E918EA54120A4A7066
:109A20002388023323800023184603B030BD0C2363
:109A30001846704730B41488E51C9D4212D80223A2
:109A40000B55138801339BB213800124CC54138827
:109A500023449BB21380C8541388234413800020EE
:109A600030BC70470C20FBE730B41488E51C9D42E5
:109A700012D802230B55138801339BB213800A249A
:109A8000CC54138801339BB21380C854138801331C
:109A90001380002030BC70470C20FBE72DE9F04F0D
:109AA00085B005468B46174699460E9EBDF83CA0EC
:109AB000338801934FF00008444611E0022126E06C
:109AC00032884A440DF10B0103A8FFF72BFF034630
:109AD000002841D19DF80B30328813443380013483
:109AE0002B88A34228DD6B6853F8240003900022E2
:109AF0000DF10B0103A8FFF715FF034660BB9DF8AE
:109B00000B30BB42EBD1B8F1000FD7D00021328827
:109B100013440B4453450DDCB8F1000FD0D1013292
:109B200092B2328009F802B03388013333804FF0AB
:109B30000108C5E70C230FE0B8F1000F0BD0338804
:109B4000019A9B1A9BB2013B9BB2FF2B08D809F8E4
:109B50000230002300E00023184605B0BDE8F08F76
:109B60000C23F9E72DE9F04182B0064617469846E6
:109B7000089CBDF82450019500940222FFF78EFF47
:109B8000034618B1184602B0BDE8F0810195009473
:109B90004346102239463046FFF780FF034600282F
:109BA000F0D10023EEE70388052B1AD9A3F68142F2
:109BB00092B24FF27D318A4215D94288052A14D9D2
:109BC000A2F6814189B24FF27D3081420FD94FF622
:109BD000FF718B420DD08A420DD093420DD80020E8
:109BE00070470720704707207047072070470720FD
:109BF0007047002070470020704707207047F8B575
:109C00001788BC1D9C4226D814460D460646FFF711
:109C1000CAFF0346E8B90523EB55238801339BB2FD
:109C200023801222EA54238801339BB22380328896
:109C3000E918EA54120A4A70238802339BB223803F
:109C40007288E918EA54120A4A7023880233238082
:109C500000231846F8BD0C23FBE70B880933934219
:109C600031D830B583B00C4605466846FFF754FE40
:109C7000034610B1184603B030BD23880822EA54C9
:109C8000238801339BB223801B22EA5420880130B1
:109C900080B2208006220DF10101284419F067FEF0
:109CA000238806339BB223809DF8002012F0FE0F1C
:109CB00006D10022EA542388013323800023D9E708
:109CC0000122EA54F7E70C2318467047F8B5848858
:109CD00002341688351902359D422BD8FE2C2BD81C
:109CE00001348C55138801339BB21380FF24CC546C
:109CF000138801339BB213800488CD18CC54240AF6
:109D00006C7015880235ADB215808688B6B1D0F872
:109D100008C0BCF1000F13D017460B46044632466C
:109D20006146581919F023FEA3883A8813443B80F2
:109D3000002000E00C20F8BD0C20FCE70020FAE732
:109D40000720F8E7836A002B3ED02DE9F041144646
:109D50000E468046002508E0304419F008FEBB8816
:109D60002288134423800135EDB298F82C30AB42A1
:109D700027D9D8F8281005EB45039A008F18BB881F
:109D80000233FE2B22D82088013333542388013339
:109D90009BB223801620F054238801339BB223808A
:109DA0008A5AF118F254120A4A702088023080B29E
:109DB0002080BA88002AD6D0B9680029CCD10720E3
:109DC00000E00020BDE8F081072070470C20F9E793
:109DD000F0B583B004460E4615461788002313805D
:109DE00090F82D30002B3BD10023A278002A42D1DD
:109DF000E078002848D1606848B13B462A463146A1
:109E000090F90000FFF730FE0346002830D1228988
:109E1000002A43D1228A002A4DD1228B002A57D111
:109E2000206A30B13B462A463146FFF7E8FE03463A
:109E3000F0B9606A30B13B462A463146FFF746FF2B
:109E40000346A8B994F82C20002A4ED122787AB182
:109E50003B462A4631462046FFF766FD034607E0AB
:109E60003A4629463046FFF7F8FE03460028BCD0A4
:109E7000184603B0F0BD3A4629463046FFF7AFFD1D
:109E800003460028B4D0F3E73B462A46314640B2A9
:109E9000FFF7D0FD03460028ADD0E9E70197009514
:109EA00033460622022104F10800FFF75BFE034659
:109EB0000028AFD0DCE70197009533460722032145
:109EC00004F11000FFF74EFE03460028A5D0CFE7AF
:109ED0000197009533461522142104F11800FFF76D
:109EE00041FE034600289BD0C2E73B462A46314646
:109EF0002046FFF727FF03460028A7D0B8E70160F8
:109F00000B6843604A68934200D070470023436067
:109F1000FBE7436833B1026891680B4443605268C1
:109F2000934200D0704700234360FBE74BDF70474C
:109F300000B585B009E01A6859680198904702A8F1
:109F4000FFF7E7FF039B002BF5D101A8FFF7EEFF1A
:109F500020B9064902A8FFF7D2FFF3E7052801D090
:109F600018F01CF805B05DF804FB00BF10490400B0
:109F700060DF704769DF704761DF7047124B1B7805
:109F800003B300B5A9B009E01A68596803A890475F
:109F900001A8FFF7BEFF029B002BF5D128A994234F
:109FA00021F89E3D03A8FFF7E7FF20B9074901A864
:109FB000FFF7A5FFEFE7052801D017F0EFFF29B065
:109FC0005DF804FB704700BF2A3300201C490400E1
:109FD00018B1034A0260002070470E20704700BF8E
:109FE000F02D0020F0B585B006460D460846FFF777
:109FF000EFFF044610B1204605B0F0BD0C22002151
:10A0000001A819F0BFFC8DF8046001278DF80670D7
:10A010000623ADF808302A6801A92020FFF7AAFF1F
:10A020000C22002101A819F0ADFC8DF80570002468
:10A030008DF806408DF807402A6801A94020FFF7F7
:10A0400099FF0C22214601A819F09CFC8DF80460B0
:10A050004523ADF806302A6801A92320FFF78AFFBF
:10A060000C22214601A819F08DFC8DF804402A68C5
:10A0700001A93846FFF77EFF0C22214601A819F0FE
:10A0800081FC4FF4B06301932A6801A9A120FFF776
:10A0900071FF0C22214601A819F074FC9DF80430D0
:10A0A0003B438DF804302A6801A9A020FFF762FF26
:10A0B000A1E7000008B5FFF75BFF034610B9024AAD
:10A0C00001211170184608BD2A33002010DF7047A7
:10A0D00010B582B004460A496846FFF710FF019B9D
:10A0E00043B11A6859682046904730B16846FFF777
:10A0F00010FFF4E7002002B010BD1120FBE700BF05
:10A100002C49040010B582B0044608496846FFF7A0
:10A11000F6FE06E01A685968204690476846FFF741
:10A12000F8FE019B002BF5D102B010BD444904009C
:10A1300008B50E4B93F816335A09EC23134113F06C
:10A14000010F0DD00A4B9B682BB1094A136843F4E9
:10A150008003136008E0054B4FF480021A6003E0AF
:10A1600042F2020017F01AFF08BD00BF00E100E054
:10A170000056002010B582B01B4B1B786BBB1B4BED
:10A1800001221A700020FFF7A3FF112829D0002018
:10A19000FFF7B8FF164B1B68019302A8002300F8D5
:10A1A000053DFFF777FB134901A8FFF78FFF044632
:10A1B000B0FA80F040090C4B18709DF80300FFF7CF
:10A1C00095FB5CB90023094A13700B4A1370FFF723
:10A1D000AFFF0120FFF796FF00E00824204602B001
:10A1E00010BD0024FAE700BF2C3300202B330020E1
:10A1F0002849040055A402002D33002000B583B087
:10A2000008496846FFF77BFE05E01A6858689047E2
:10A210006846FFF77EFE019B002BF6D103B05DF888
:10A2200004FB00BF3849040008B5FFF7E7FF08BD8D
:10A2300000230BB10020704703EB83018A0006491D
:10A240008A5A824201D00133F3E703EB83039A0079
:10A2500008461044704700BF4C330020F0B4848897
:10A26000A618944218D9A41AC288D7189A4215D9A8
:10A27000D21A4B880588AB4214D34088834214D845
:10A280008B88A34213D3B34213D8CB88934212D303
:10A29000BB4205D8012006E00024E5E70022E8E7FC
:10A2A000002000E00020F0BC70470020FBE7002009
:10A2B000F9E70020F7E70020F5E7000008B5024BBA
:10A2C0009B6903B1984708BD3033002010B58088E2
:10A2D000FFF7AEFF38B10446406814F05BFD18B9D3
:10A2E0004FF6FF73238010BDFFF7E8FFF8E700008B
:10A2F00000B583B00B46497A71B91A7A4AB90E4A49
:10A3000051680246586814F023FD88B1FFF7D6FF64
:10A310000EE0094A9168F4E700221A72064B5B6965
:10A3200033B101228DF80420ADF8060001A898474A
:10A3300003B05DF804FB00BF3033002070B5C37B71
:10A340008688012B00D070BD04464FF6FF70FFF7E2
:10A350006FFF0546E0B106800023037200F10A0397
:10A360000D4A03CAC5F80A00184659604FF6FF7334
:10A3700040F2F31204F11001FFF770FF6872074B0F
:10A38000DB89002BDFD129463046FFF7B1FFDAE742
:10A390000420FFF793FFD6E760330020303300201E
:10A3A00070B5064685882846FFF742FF70B104461F
:10A3B0004FF6FF7340F2F31206F108010A30FFF77F
:10A3C0004DFF607221462846FFF792FF70BD0000E6
:10A3D000C288104BDB899A4200D07047038A022B57
:10A3E000FBD170B5044685882846FFF721FF064655
:10A3F00078B104F1120000F026F830B9706814F05A
:10A40000C9FC30B1FFF75AFF03E031462846FFF799
:10A410006FFF70BD3033002008B50388112B0CD0BE
:10A4200006D9122B0CD0502B06D1FFF7D1FF03E039
:10A43000102B01D1FFF782FF08BDFFF747FFFBE7B5
:10A44000FFF7AEFFF8E7007800F001007047062044
:10A450007047000030B587B00D46144641F2010345
:10A4600098426AD02CD944F20103984200F09E80B1
:10A4700044F20203984240F0CA807F4B1B6813F4F9
:10A48000804F29D07D4B1B68002B25DD2F217C4878
:10A4900019F052FB00287CD02F21794819F04CFB91
:10A4A000411C784BD3F804352288039262680292EB
:10A4B0000195754A00926C22012005F0B3FF0BE074
:10A4C000012840F0A4806C4B1B6813F4804F03D02C
:10A4D0006A4B1B68002B0DDC4FF0A0434FF4F012C9
:10A4E000C3F81825C3F80C25EFF3108372B64DF6A8
:10A4F000AD6CBAE02F21624819F01EFB80B12F210C
:10A500005F4819F019FB411C5E4BD3F804350294E7
:10A5100001955E4A00926022012005F083FFDBE78F
:10A520005C21574819F008FB28B15C21544819F008
:10A5300003FB411CE8E75249E6E74F4B1B6813F465
:10A54000804FC9D04D4B1B68002BC5DD2F214C48D7
:10A5500019F0F2FA80B12F21494819F0EDFA411CA7
:10A56000484BD3F8043502940195494A009263227E
:10A57000012005F057FFAFE75C21414819F0DCFAF4
:10A5800028B15C213E4819F0D7FA411CE8E73C4964
:10A59000E6E75C213A4819F0CFFA28B15C21384847
:10A5A00019F0CAFA411C7CE735497AE7324B1B683F
:10A5B00013F4804F90D0314B1B68002B8CDD2F2182
:10A5C0002F4819F0B9FAA8B12F212D4819F0B4FA83
:10A5D000411C2C4BD3F80435226804926268039224
:10A5E0000295A26801922B4A00927722012005F081
:10A5F00019FF71E75C21224819F09EFA28B15C210D
:10A600001F4819F099FA411CE3E71D49E1E71A4B8D
:10A610001B6813F4804F3FF45FAF184B1B68002B8F
:10A620007FF75AAF2F21164819F086FA78B12F21FB
:10A63000134819F081FA411C124BD3F804350195E7
:10A64000154A00927B22012005F0ECFE44E75C21D4
:10A650000B4819F071FA28B15C21094819F06CFA1D
:10A66000411CE9E70649E7E730BF0C4B1B78002B9C
:10A67000FAD107B030BD00BF302E00202C2E0020B4
:10A680005049040000100140B84904007849040012
:10A6900094490400D8490400FC490400282E0020F5
:10A6A00000B583B00023ADF80030054B01936A4636
:10A6B000014644F20200FFF7CDFE03B05DF804FB53
:10A6C000103D040008B510220146024819F04FF968
:10A6D00008BD00BF6833002010B50B4C08220B49A1
:10A6E000204619F044F908220949A01819F03FF949
:10A6F000E379042262F30713E371237A022262F3FF
:10A700008713237210BD00BF683300206000001063
:10A71000A40000100048704768330020002308E0C0
:10A72000074901EBC30000224280426001F8332058
:10A7300001331F2BF4D9034B00221A60704700BF6E
:10A74000783300207834002030B405460F4B1B6866
:10A7500000240AE01F230E4A12F83300A0B102EBD6
:10A76000C3025288AA4207D001341F2C0BD85A1EAC
:10A77000002BEFD01346EEE7054A02EBC302526806
:10A780008A42F1D100E0002030BC704778340020CC
:10A790007833002030B40A4A13680A4C04EBC3052E
:10A7A00068806960012104F833100B441360202B8A
:10A7B00001D030BC7047134600221A60F9E700BF91
:10A7C0007834002078330020F0B416461F4600236A
:10A7D00000E00133072B0ED81901084C615A814261
:10A7E000F7D104EB0312D2E90245BD4208BFB442DF
:10A7F000EFD1012000E00020F0BC70478034002041
:10A8000030B4C5698169C4882B0A2A06C1F30C05D6
:10A81000A54213D3641B2144541843F100050A4A8E
:10A820001368591C116003F00703808A074A1B0153
:10A83000D118D052C1E9024530BC7047641B214495
:10A84000A1F50051E8E700BF00350020803400206A
:10A85000C37D002B42D0C3780A7802F0800203F057
:10A860007F0313430B7002780B7803F07F0343EAF6
:10A87000C2130B700378002B41D030B48378082BBF
:10A8800014BF002201224B7803F07F0343EAC21376
:10A890004B70C58803F08003C5F3861423434B70C7
:10A8A0008A7802F0030242EA8502D2B28A70057AFF
:10A8B00002F0FC02C5F3C10422438A70CB7803F096
:10A8C0001F0343EA4513DBB2CB70427A03F0E00387
:10A8D00002F01F021343CB7030BC7047C3780A7874
:10A8E00002F0BF029B0103F0400313430B70027997
:10A8F00003F0C00302F03F0213430B70B3E770474D
:10A900000023032B2DD810B402E00133032B24D8ED
:10A91000C3EBC3021401144A224492F84820012ACE
:10A92000F3D1114A2244948AC2899442EDD1C3EBF7
:10A93000C30214010C4A2244D2888A42E5D10A4A51
:10A940002244B2F8582012B1848AA242DDD1C3EB6E
:10A95000C3031A010448104400E000205DF8044BD2
:10A9600070470020704700BF2C350020002300E016
:10A970000133032B14D8C3EBC3021101094A0A4463
:10A9800092F84820022AF3D1064A0A44918A828A20
:10A990009142EDD1C3EBC3031A0102481044704742
:10A9A000002070472C35002008B108207047042093
:10A9B000704730B403460C460978C17000214162EB
:10A9C000A1680B2903D8217B01B3012100E00121FB
:10A9D00019700020987029B1A1680731C9080139A0
:10A9E000597218720121D97503F10C0504F1100197
:10A9F00003C985E80300E1899982A1691962217F71
:10AA00009975216AD9629A6230BC70470021DFE7EC
:10AA10000021164B1B688B4226D90023144A02EBF7
:10AA2000C10252689A421DD910B4114A52F831201D
:10AA300002EBC30412F8332082420DD001330C4ADA
:10AA400002EBC10252689A42EFD80131074B1B68F2
:10AA50008B4205D90023F2E760685DF8044B70472C
:10AA60000020FAE70131D4E70020704704350020C8
:10AA70000835002070B58CB006460D4614462C22D1
:10AA8000002101A818F07EFF0F238DF80430ADF8E7
:10AA900008604FF0000365F300038DF80A308DF86D
:10AAA0000B4001A801F0CCFA0CB070BD30B58DB0F0
:10AAB00005460C462C22002101A818F063FF102344
:10AAC0008DF8043002958DF80C4001A801F0B8FA19
:10AAD0000DB030BD00B58DB050B913F1020F07D0E5
:10AAE00001218DF804100293039201A801F0A8FA45
:10AAF000034B186804F01EFB0DB05DF804FB00BFAB
:10AB000010350020F8B5069C00295AD00F461E4685
:10AB100011460546182204F10C0018F028FF002306
:10AB200063702A78D209227062B30423BB424AD8E8
:10AB3000E17D49B32B7803F07F03E3700023A3701A
:10AB400023789BB16B789B0103F4FE53AA7843EA08
:10AB50009203E380AB78DB0003F01803EA7843EA62
:10AB600052132372EB7803F01F03637200236362B6
:10AB70003378032B21D83278144B53F82230E36218
:10AB800000201FE00123D1E72978C1F38011E17093
:10AB9000297801F03F01217142B195F90130002B74
:10ABA00002DB0423A370CBE70823FBE70422A27097
:10ABB0001344BB42C4D9092004E07846FFF770FD76
:10ABC000D9E70920F8BD0920FCE700BF184A0400B6
:10ABD00070B50C461E460378ABB104252A44A2602A
:10ABE00000F10C032360836A6360C36AE36000239F
:10ABF0002374204604F00EFE024610B963691D441A
:10AC00003560104670BD0125E8E72DE9F0418EB0B2
:10AC10000D4616461C46804600282DD0002D2FD00C
:10AC2000002C31D0636A0233059304F10C00E37801
:10AC3000002B2DD00121A27801AF3B46082A14BF7A
:10AC40000022012204F0B7FB0697CDF81C80B2B2B7
:10AC5000ADF820200B9515440C95A3788DF8343071
:10AC6000237B022B16D00023ADF8283005A804F072
:10AC70009AFB0EB0BDE8F0817846FFF711FDCDE7F5
:10AC80007846FFF70DFDCBE77846FFF709FDC9E7EA
:10AC90000221D0E723692BB1236909931023ADF872
:10ACA0002830E3E77846FFF7FBFCF5E72DE9F041B4
:10ACB00088B004460D46C37D002B3CD0082605FB1A
:10ACC00006F8637AAB4238D0257201AB324602A94E
:10ACD0002046FFF77DFF074648BB4DB994F8533037
:10ACE00033B9A369C3F30C03E380012384F8533021
:10ACF000E37D7BB994F8523063B91DBBB4F84A10B8
:10AD0000A27823468A1AE16E0846FFF77EFF0123E8
:10AD100084F8523007992046FFF79AFDE16E3246DB
:10AD20004144019818F023FE02A804F099FD38462A
:10AD300008B0BDE8F0810C26C1E7B4F84A60A6EB84
:10AD40000806C1E77846FFF7ABFCD7E770B50546C4
:10AD50000E4609B100230B6095F85040002104E035
:10AD6000631C85F850300134E4B26B7AA34210D3EF
:10AD7000EA6C0123A3401A42F5D121462846FFF789
:10AD800095FF014628B9002EEAD0336801333360BD
:10AD9000E6E7084670BDF0B589B085781544C37DF7
:10ADA000DBB10B239D4221D816460F46044601AB6A
:10ADB0002A4602A9FFF70CFF0546C0B907992046AD
:10ADC000FFF746FDE37D53B132463946019818F04E
:10ADD000CEFD02A804F044FD09E00F23E2E723467C
:10ADE000324601993846FFF710FFF2E70925284659
:10ADF00009B0F0BD10B5044690F84830012B0CD1D5
:10AE000003F05AFB237B012B0BD0094BD96801447B
:10AE100004F1300003F026FB10BD7846FFF740FC3C
:10AE2000EEE7A37D024AD168126902FB0311EEE747
:10AE30001435002030B583B0002403E02846FFF726
:10AE4000D9FF0134032C1AD8C4EBC4031A010D4BEB
:10AE5000134493F84830012BF3D102A9002341F8A1
:10AE6000043DC4EBC4021301064D1D442846FFF700
:10AE70006DFF0428E2D0019B002BE2D0DEE703B097
:10AE800030BD00BF2C35002038B5044690F848305E
:10AE9000022B02D07846FFF703FC054B1D6803F038
:10AEA0000BFB411904F1300003F0DCFA38BD00BFA0
:10AEB0001435002038B5044690F84830022B02D0F3
:10AEC0007846FFF7EDFB084B5D7D5A689B6803FBF6
:10AED000052503F0F1FA411904F1500003F0C2FA1C
:10AEE000012384F8683038BD1435002010B50446BD
:10AEF000808A02F0ADFE01281CD1237BE3B194F9D6
:10AF00001620002A1ADBE27D4AB1022B18D094F9F0
:10AF10000330002B16DBA378B3B900200BE0E278F6
:10AF20000AB9012B12D1237893B9A378042B11D13C
:10AF3000002000E0102010BD1020FCE70720FAE7F9
:10AF40001020F8E70720F6E70720F4E70720F2E7EC
:10AF50000020F0E70720EEE738B5044603784BB150
:10AF6000C388C2698169808A06F076FC054645B9C6
:10AF7000284638BDC2698169808A06F067FC0546AB
:10AF8000F5E7E169002201F00101A08AFFF772FDF7
:10AF9000EEE700002DE9F04780460E4617464B1EAF
:10AFA000DBB2012B0FD8B7F5C07F10D80024032CDB
:10AFB0001AD8C4EBC4031A012A4B134493F848303F
:10AFC0004BB10134F3E77846FFF76AFBEBE77846CD
:10AFD000FFF766FBEAE7DFF88CA0154655443846D4
:10AFE00008F089FEE86600E00025F5B1EB6E002B65
:10AFF00035D030224146284618F0B9FC0023EB64D6
:10B00000A5F84A70012E13D06FF00103AB62002344
:10B0100085F86830144BAB652D66144BAB632D641B
:10B02000012002F019FB85F848602846BDE8F0874A
:10B030000F4B1B7D85F85130002385F8523085F881
:10B04000533085F85030D8F828206A65A5F8583074
:10B050006FF00103AB62074BAB632D64E0E70025A3
:10B06000E3E700BF2C350020CFBB02002DB4020067
:10B070001435002079B4020000B585B000238DF8A6
:10B080000F3098B10346084602330B600DF10F01F3
:10B0900004F08DF99DF80F3043B1184B1B6813F085
:10B0A000040F03D0164B1B68032B04DC9DF80F0024
:10B0B00005B05DF804FB2F21124818F03DFD78B172
:10B0C0002F21104818F038FD411C0F4BD3F80435E0
:10B0D0000E4A009240F20642042005F0A3F9E5E78B
:10B0E0005C21084818F028FD28B15C21054818F0BB
:10B0F00023FD411CE9E70349E7E700BF302E0020AC
:10B100002C2E0020F44A040000100140144B0400CF
:10B110002DE9F0438FB004460E4615461F46D0F881
:10B12000188003784BB1C388C8F30C029A4241D20D
:10B130009B1A4344A3F50053A36104F10C00E37888
:10B14000002B3AD00121A2780DF128094B46082A9C
:10B1500014BF0022012204F02EF9C4F81880CDF8A3
:10B1600008900396A378EA1A92B2ADF81020324400
:10B17000089207978DF824300023ADF81830E37853
:10B180007BB3237B022B1AD02546002345F8243FAE
:10B190002A462179206A13F089F9606AA8B101A9C9
:10B1A000FFF76AFF00283ED12A462179206A13F072
:10B1B0007DF9F2E79B1A4344BEE70221C3E710235F
:10B1C000ADF8183023690593DEE7237B022B2ED1DF
:10B1D00004F10C01E08913F019FA0028D1D10520FF
:10B1E00022E0237B012B24D1E389ADF80030A38A30
:10B1F000ADF802300025012D13D82146002341F877
:10B20000243F0EAB03EB450333F8380C13F06BF916
:10B2100001A9606AFFF730FF08B90135EBE70020AC
:10B2200002E0052000E000200FB0BDE8F08305201B
:10B23000FAE70520F8E7000070B5F0B00D461446B7
:10B240001E4610AB0A4601462046FFF761FF50B18B
:10B250002D4B1B6813F0040F03D02C4B1B68052BE0
:10B260002FDC70B070BD2046FFF776FE0028F8D1C5
:10B2700003AB01228DF80C20A28AADF80E2000222B
:10B2800004928DF8142010AA0692A278AD1AADF897
:10B290001C5008AA93E8030082E803000AAB04F1FB
:10B2A0000C0292E8030083E80300A37D8DF8383098
:10B2B000236A0C93636A0D930F9605A800F0C0FEF5
:10B2C000CFE72F21124818F037FC78B12F21104812
:10B2D00018F032FC411C0F4BD3F804350E4A009293
:10B2E00040F2F262062005F09DF8BAE75C210848BA
:10B2F00018F022FC28B15C21054818F01DFC411C07
:10B30000E9E70349E7E700BF302E00202C2E00209C
:10B31000F44A040000100140644B040010B50446D8
:10B32000C06E08F0ECFC04F1300003F083F894F8F0
:10B330004830022B0AD070220021204618F022FB50
:10B34000002084F8480002F087F910BD04F1500095
:10B3500003F070F8EFE710B58CB0044690F8483071
:10B36000012B02D07846FFF79BF901238DF80430BA
:10B37000636D029301A800F063FE2046FFF7CEFF45
:10B380000CB010BD30B585B00D460446A8B194F898
:10B390004830022B15D02946606DFFF787FB204609
:10B3A000FFF7BCFF1C4B1B6813F0040F03D01B4BB3
:10B3B0001B68032B09DC05B030BD7846FFF770F938
:10B3C000E5E72046FFF71CFAE5E72F21144818F0BF
:10B3D000B3FB98B12F21124818F0AEFB411C114B62
:10B3E000D3F8043594F84820029501920E4A009251
:10B3F0004FF4FA72042005F015F8DCE75C210848E8
:10B4000018F09AFB28B15C21054818F095FB411C07
:10B41000E5E70349E3E700BF302E00202C2E002093
:10B42000F44A040000100140384A040008B50846F8
:10B430000021FFF7A7FF08BD08B5037B012B02D051
:10B44000FFF789FF08BD0121FFF79CFFFAE7000025
:10B4500008B590F8513013B9FFF7EEFF08BD013B76
:10B4600080F85130002380F85030024B186803F008
:10B4700061FEF3E71035002010B50C4691F8483016
:10B48000012B02D07846FFF70BF92046FFF7E0FFCB
:10B4900010BD0000062900D07047F0B585B01546F4
:10B4A0000278910101F4FE5147788478C3781B0437
:10B4B00043EA0463047943EA042344791C4356B203
:10B4C00041EA97012846FFF71BFA074640B3002ED2
:10B4D0005EDBC289AB8A9A425AD0434B1B6813F099
:10B4E000040F6DD0414B1B68012B69DD2F214048B3
:10B4F00018F022FB00283ED02F213D4818F01CFBFD
:10B50000411C3C4BD3F80435FA89AC8A0294019271
:10B51000394A00924FF4CE62022004F083FF4FE0DC
:10B52000314B1B6813F0040F4AD0304B1B68012BC2
:10B5300046DD2F212E4818F0FFFA78B12F212C4834
:10B5400018F0FAFA411C2B4BD3F804352B4A009221
:10B550004FF4CD62022004F065FF31E05C21244805
:10B5600018F0EAFA28B15C21214818F0E5FA411CEC
:10B57000E9E71F49E7E75C211D4818F0DDFA28B12B
:10B580005C211B4818F0D8FA411CBAE71849B8E703
:10B59000002E17DBFD6C2543FD64BCB13B78D3B1B5
:10B5A0007B7A5A1C01239340013B9D4217D0002116
:10B5B00087F850103846FFF7C9FB3846FFF71AFCEA
:10B5C00005B0F0BDAB8AA7F85830E3E70321384651
:10B5D000FFF7D8FEF4E77846FFF762F8E0E7384671
:10B5E000FFF7B9FEECE700BF302E00202C2E002024
:10B5F000F44A040000100140A04A0400704A04000C
:10B600002DE9F0438BB080460F4614461E46104687
:10B61000FFF7A2FC10BBE5781DB32846FFF7F8F949
:10B620008146D8B18DF80450236A0793A38AADF8F8
:10B63000123005AB04F10C0292E8030083E803002A
:10B64000A37D8DF82030CDF80880039723788DF8FE
:10B650001030E36A0993314601A8C8470BB0BDE832
:10B66000F0833346224639464046FFF713FFF5E79D
:10B6700010B5547814F0010F03D0D47D14B9FFF73E
:10B68000DBFD10BDFFF7BCFFFBE708B5013901305A
:10B69000FFF7EEFF08BD0000F0B5C7B0867816448E
:10B6A000C37D33B14FF48073B342C0F09280002366
:10B6B00003E04FF4C073F7E70133032B19D8C3EB52
:10B6C000C3042501484C2C4494F84840012CF3D184
:10B6D000454C2C44A58A848AA542EDD1C3EBC30412
:10B6E0002501414C2C44E589C489A542E4D10824B4
:10B6F00070E014460D4632460121FFF74BFC06462A
:10B7000000286AD022462946C06E18F030F946A9B2
:10B71000002341F8043D3046FFF718FB044608B10A
:10B72000042852D1459B7BB9304B1B6813F0040FA2
:10B7300055D02F4B1B68032B53DDB6F84A70802F72
:10B7400028BF8027002313E03046FFF753FBEBE7C9
:10B75000F26ED25C27490C6810095900255C04A8D8
:10B7600000F8135002F00F020131A25C4254013381
:10B77000BB42EDD304AB002203F817202F211E4853
:10B7800018F0DAF9A0B12F211B4818F0D5F9411CA7
:10B790001A4BD3F8043504AA0292194A0192194AA5
:10B7A000009240F25552042004F03CFE002411E0C7
:10B7B0005C21114818F0C0F928B15C210E4818F03E
:10B7C000BBF9411CE4E70C49E2E73046FFF7A6FD70
:10B7D00000E00924204647B0F0BD0424FAE7002425
:10B7E000F8E70024F6E700BF2C350020302E0020BB
:10B7F0002C2E0020342E0020F44A040000100140BA
:10B80000E44A0400CC3D040070B504460D461646DB
:10B81000FFF76CFB034638B923783BB9324629461B
:10B820002046FFF7B8FA0346184670BD324629464F
:10B830002046FFF731FF0346F6E7000038B504461F
:10B840000D46CB695B780371CB691B7883F00103EC
:10B85000C370CB6943628B8A0B2B07D8CB7A002B42
:10B8600035D10B7B012B02D0002300E00123237094
:10B87000002B31D0287B02282BD0FFF795F8A07041
:10B88000AB8A03440B33174880FB03235B10013B57
:10B890006372002323720023E37504F10C0395E81F
:10B8A000030083E80300AB6923622B89A382AB7A90
:10B8B000A3752B6AA362DF23E362284612F0D4FE4D
:10B8C00020B12B78012B0AD0FF23E36238BD01237E
:10B8D000CDE7054B987DD0E70423A370DBE7202359
:10B8E000F3E700BFABAAAA2A1435002010B54FF425
:10B8F000E0720021134818F045F806F079F90024A9
:10B90000114B1C6080222146104818F03BF8104B68
:10B91000104A1A60104A5A604CF250329A600F492D
:10B92000D9601A6104221A759C7508225A750C4850
:10B9300003F0E0FB0B4B18600B4B1C600B4806F050
:10B9400077FA10BD2C35002000350020803400200F
:10B950001435002080969800F049020020A10700CD
:10B96000C1BB02001035002004350020D5AA02001A
:10B9700008B505F063FF08BD98B110B58CB004465A
:10B98000036983B1C36983B1836983B101466846A2
:10B99000FFF754FFA28A21696846FFF735FF0CB014
:10B9A00010BD0E2070470E20F9E70E20F7E70E209D
:10B9B000F5E70000002843D030B591B00446426856
:10B9C000002A3FD08269002A3ED00A46014604A8D8
:10B9D000FEF7EFFF1D4B1B6813F0040F03D01C4B49
:10B9E0001B68062B06DCA268616804A8FFF70CFF41
:10B9F00011B030BD2F21174818F09EF898B12F21B3
:10BA0000144818F099F8411C134BD3F804352278E8
:10BA1000A56902950192114A009240F2F572072041
:10BA200004F000FDDFE75C210A4818F085F828B132
:10BA30005C21084818F080F8411CE5E70549E3E778
:10BA40000E2070470E20D3E70E20D1E7302E0020C5
:10BA50002C2E0020F44A040000100140284B040062
:10BA6000037B012B01D00020704770B58EB00D46CE
:10BA700004463B4B1B6813F4007F03D0394B1B6813
:10BA8000032B45DC02AE0B220021304617F07AFF73
:10BA9000E3889DF8092002F0030242EA83028DF850
:10BAA00009202A0E8DF80A202A0C8DF80B202A0A6C
:10BAB0008DF80C208DF80D506278022A14BF0022F8
:10BAC0000122C3F3861343EAC2138DF8083006231C
:10BAD000079301238DF82430A38AADF82630002384
